:020000040800F2
:10000000600C0020A9020008050300081F0C00086E
:1000100005030008050300080503000800000000B0
:1000200000000000000000000000000005030008C0
:100030000503000800000000050300080503000890
:100040000503000805030008050300080503000870
:100050000503000805030008950C000805030008C7
:100060000503000805030008050300080503000850
:100070000503000805030008050300080503000840
:100080000503000805030008050300080503000830
:100090000503000805030008050300080503000820
:1000A0000503000805030008050300080503000810
:1000B000B10C00080503000805030008050300084B
:1000C00005030008050300080503000805030008F0
:1000D00005030008050300080503000805030008E0
:1000E00005030008050300080503000805030008D0
:1000F00005030008050300080503000805030008C0
:1001000005030008050300080503000805030008AF
:10011000050300080503000805030008050300089F
:10012000050300080503000805030008050300088F
:10013000050300080503000805030008050300087F
:10014000050300080503000805030008050300086F
:10015000050300080503000805030008050300085F
:10016000050300080503000805030008050300084F
:10017000050300080503000805030008050300083F
:10018000050300080503000880B582B000AF786061
:10019000144B1B785A1CD1B2124A11707A68D1B232
:1001A000114AD1540F4B1B780F4A0021D1540D4BEB
:1001B0001B7801330F2B05D87B680A2B02D07B6894
:1001C000002B0CD1074B00221A70074B0420194654
:1001D000002200F019FD0346002B00D000BF0837B5
:1001E000BD4680BD580400204804002080B582B080
:1001F00000AF0BE07B68002B08D03B1D07200021DF
:100200001A4600F001FD7B68DBB20AE03B1D40F2BC
:10021000011000211A4600F0F7FC0346002BE9D13B
:10022000002318460837BD4680BD00BF90B484B097
:1002300000AF02460B46FA71BB710023FB60BB792D
:1002400003F003039B000F2202FA03F3FB60154B3C
:10025000BA799208D2B21349B8798008C0B2023094
:1002600051F82000F968C9430140023243F82210D6
:100270000C4BBA799208D2B20A49B8798008C0B258
:10028000023051F82000FC79B97901F003018900AE
:1002900004FA01F10143023243F822101037BD463F
:1002A00090BC70470038014080B582B000AF104B61
:1002B0007B60104B3B6007E03B681A1D3A607A6830
:1002C000111D796012681A603A680B4B9A42F3D399
:1002D0000A480B494FF000028842B8BF40F8042B8F
:1002E000FFF6FAAF00F012F80837BD4680BD00BF38
:1002F0005812000800000020480400204804002094
:100300006004002080B400AFFEE700BF80B582B07B
:1003100000AF00F0EDFC00237B604FF47A7000F03A
:10032000A3FC012000F088FC7B6801330D4A82FBAE
:1003300003125111DA178A1A642101FB02F29B1A87
:100340007B600948796800F067FB084800F064FBAF
:10035000FFF74CFF0346FB70FB780548194600F099
:100360005BFBDAE71F85EB51E4110008F41100088C
:100370001412000880B500AF022000F05DFC0320DD
:1003800000F05AFC80BD00BF80B500AF084B1B8851
:10039000013B9AB2064B1A80054B1B88002B06D1F5
:1003A000002000F049FC024B4FF47A721A8080BDA5
:1003B0000000002080B483B000AF78600B46FB7073
:1003C000FB78002B06D0094B084A116B7A680A4368
:1003D0001A6306E0054B054A116B7A68D2430A405E
:1003E0001A630C37BD465DF8047B70470038024045
:1003F00080B483B000AF78600B46FB70FB78002BB5
:1004000006D0094B084A116C7A680A431A6406E060
:10041000054B054A116C7A68D2430A401A640C37BE
:10042000BD465DF8047B70470038024080B582B05D
:1004300000AF0346FB71FB791846FFF7A5FE0837AE
:10044000BD4680BD80B483B000AF78600B46FB70C2
:100450007B68FA781A70012318460C37BD465DF8A0
:10046000047B704780B485B000AF786039600023AA
:10047000FB600AE07B685A1C7A603A68511C39605C
:1004800012781A70FB680133FB603B681B78002B05
:10049000F0D1FB6818461437BD465DF8047B704701
:1004A00080B586B000AFF8607A603B600B46FB72A7
:1004B00000237B617B68013B7B603B68092B10D983
:1004C0003A681E4BA3FB0213DB08FA7AF868114660
:1004D0007A68FFF7E5FF78617B69FA681344FB608F
:1004E00011E00DE0FB7AF8681946FFF7ABFFFB68F7
:1004F0000133FB607B6901337B617B68013B7B607F
:100500007B68002BEEDC39680C4BA3FB0123DA0877
:1005100013469B0013445B00CA1AD3B23033DBB2DC
:10052000F8681946FFF78EFF03467A6913447B612A
:100530007B6918461837BD4680BD00BFCDCCCCCCFA
:1005400080B586B000AFF8607A603B600B46FB7206
:1005500000237B613B68002B03DA3B685B423B6115
:1005600001E03B683B617B68013B7B603B69092B99
:1005700021D93B68002B0DDA3A692F4BA3FB0213FC
:10058000DB085B42FA7AF86811467A68FFF7D8FF11
:1005900078610BE03A69284BA3FB0213DB08FA7A77
:1005A000F86811467A68FFF7CBFF78617B69FA68D3
:1005B0001344FB6026E03B68002B03DA7B68013BB9
:1005C0007B600EE00DE0FB7AF8681946FFF73AFF12
:1005D000FB680133FB607B6901337B617B68013B16
:1005E0007B607B68002BEEDC3B68002B0ADAF86846
:1005F0002D21FFF727FF03467A6913447B61FB68CF
:100600000133FB6039690C4BA3FB0123DA08134665
:100610009B0013445B00CA1AD3B23033DBB2F868D4
:100620001946FFF70FFF03467A6913447B617B6924
:1006300018461837BD4680BDCDCCCCCC80B588B02F
:1006400002AFF8607A600A46FA72BB7200237B61DF
:100650007B68013B7B603B6A1B09002B12D03B6A25
:100660001909FA7ABB7A0091F86811467A68FFF79F
:10067000E5FF03467A6913447B617B69FA6813449A
:10068000FB6011E00DE0FB7AF8681946FFF7DAFE2F
:10069000FB680133FB607B6901337B617B68013B55
:1006A0007B607B68002BEEDC3B6A03F00F03092BB9
:1006B0000BD83B6ADBB203F00F03DBB23033DBB2A3
:1006C000F8681946FFF7BEFE19E0BB7A002B0BD085
:1006D0003B6ADBB203F00F03DBB23733DBB2F868FF
:1006E0001946FFF7AFFE0AE03B6ADBB203F00F03E7
:1006F000DBB25733DBB2F8681946FFF7A3FE7B691C
:1007000001337B617B6918461837BD4680BD00BF49
:1007100080B58AB002AFF860B9607A603B600023B0
:10072000BB6100237B61FB68002B03D0FB680022C8
:100730001A70F8E0F7E07B681B78252B0BD0FB687C
:100740005A1CFA607A68511C796012781A707B69B9
:1007500001337B61E7E07B6801331B78252B0BD1EC
:10076000FB685A1CFA6025221A707B6802337B6092
:100770007B6901337B61D6E02023FB770023BB77C5
:100780007B6801337B607B681B78302B05D130237D
:10079000FB777B6801337B600FE00EE0BB7F1A467E
:1007A000920013445B00DAB27B681B781344DBB21F
:1007B000303BBB777B6801337B607B681B782F2BDA
:1007C00003D97B681B78392BE8D9BA7F7B6913443E
:1007D0001A46BB689A4205D9BB68DAB27B69DBB2BC
:1007E000D31ABB777B681B78583B202B00F28D8097
:1007F00001A252F823F000BFC50800080B09000849
:100800000B0900080B0900080B0900080B09000878
:100810000B0900080B0900080B0900080B09000868
:100820000B090008F50800087D0800080B090008FE
:100830000B0900080B0900080B0900087D080008D7
:100840000B0900080B0900080B0900080B09000838
:100850000B0900080B0900080B0900080B09000828
:100860000B090008E10800080B09000893080008BC
:100870000B0900080B090008A9080008BA7F3B68AB
:10088000191D39601B68F97FF868FFF759FEB861D8
:100890003EE0BA7F3B68191D39601B68F97FF86834
:1008A000FFF7FEFDB86133E0BA7F3B68191D396080
:1008B0001968FB7F0091F86819460023FFF7BEFE18
:1008C000B86125E0BA7F3B68191D39601968FB7F64
:1008D0000091F86819460123FFF7B0FEB86117E0F0
:1008E0003B681A1D3A601B68F8681946FFF7BAFDA5
:1008F000B8610DE03B681A1D3A601B68DBB2F8680E
:100900001946FFF79FFDB86102E04FF0FF3325E085
:100910007B6801337B60BB69FA681344FB607A69CA
:10092000BB6913447B617B681B78002B04D07A6918
:10093000BB689A42FFF4FFAE7A69BB689A4203D261
:10094000FB6800221A7008E0FB68013BFB60FB6853
:1009500000221A707B69013B7B617B691846203756
:10096000BD4680BD80B584B000AFF860B9607A60E4
:10097000F8686421BA687B68FFF7CAFE0346184628
:100980001037BD4680BD00BFB0B5A6B000AFF8605F
:10099000B9607A60144B07F110041D460FCD0FC4E7
:1009A0000FCD0FC42B68236007F134031846B968D4
:1009B0007A68FFF7D7FF0346632B09DD0B4B1B68F3
:1009C000DB6807F110021046194600F059F8FEE7FF
:1009D00007F134031846F96800F052F80346184648
:1009E0009837BD46B0BD00BF2C120008300400206F
:1009F00080B582B000AF78603960064B1B689B6899
:100A0000184679683A68FFF7BFFF0346184608376B
:100A1000BD4680BD300400200FB480B582B000AF69
:100A200007F114033B6038693968FFF7E1FF78602C
:100A30007B6818460837BD46BDE8804004B0704763
:100A400080B582B000AF786039600C4B1B689A6843
:100A50003B689A4205D0094B1B68DA683B689A42AA
:100A600006D17B68DBB21846FFF7E0FC7B6801E04B
:100A70004FF0FF3318460837BD4680BD30040020D4
:100A800080B584B000AF786039600023FB6012E06D
:100A90007B681B7818463968FFF7D2FF0346B3F12D
:100AA000FF3F02D14FF0FF330AE0FB680133FB60E8
:100AB0007B6801337B607B681B78002BE8D1FB6887
:100AC00018461037BD4680BD80B487B000AF78604F
:100AD000396000237B6100233B610023FB6000231E
:100AE0007B6176E07B69012202FA03F33B613B689C
:100AF0001A683B691340FB60FA683B699A4265D10A
:100B00007B681A687B695B00032101FA03F3DB430E
:100B10001A407B681A607B681A683B681B79194623
:100B20007B695B0001FA03F31A437B681A603B6838
:100B30001B79012B03D03B681B79022B2ED17B68DC
:100B40009A687B695B00032101FA03F3DB431A40D7
:100B50007B689A607B689A683B685B7919467B6919
:100B60005B0001FA03F31A437B689A607B685A685A
:100B70007B699BB2012101FA03F3DB431A407B68D6
:100B80005A607B685A683B689B7919467B699BB2BF
:100B900001FA03F39BB21A437B685A607B68DA68F8
:100BA0007B699BB25B00032101FA03F3DB431A402C
:100BB0007B68DA607B68DA683B68DB7919467B69B9
:100BC0005B0001FA03F31A437B68DA607B69013347
:100BD0007B617B690F2B85D91C37BD465DF8047B93
:100BE000704700BF80B483B000AF78600B467B8055
:100BF0007B685A697B885A407B685A610C37BD46CE
:100C00005DF8047B704700BFABBE00F002B8002067
:100C10007047002A00F0018010600120704706989C
:100C20000188044A914240F00380043006907047E6
:100C3000FEE70000ABBE000080B582B000AF034607
:100C4000FB71FA79064B53F82220F979054B33F8FA
:100C5000113010461946FFF7C5FF0837BD4680BD65
:100C6000380400205012000880B483B000AF03465F
:100C7000FB80074BFA881A8000BF054B1B889BB28C
:100C8000002BFAD10C37BD465DF8047B704700BFDE
:100C90005C04002080B500AF012000F039F9034664
:100CA000002B04D0012000F025F9FFF763FB80BD85
:100CB00080B500AF4FF08040012100F059FA0346A3
:100CC000002B12D04FF08040012100F07BFAFFF79B
:100CD0005BFB064B1B889BB2002B06D0034B1B888B
:100CE0009BB2013B9AB2014B1A8080BD5C0400208C
:100CF00080B500AF00F006F800F024F800F05CF8D2
:100D000080BD00BF80B582B000AF08200121FFF791
:100D100051FB4FF440433B603B6843F440533B601E
:100D200001233B7102237B710023BB710023FB7104
:100D30003B4603481946FFF7C7FE0837BD4680BD4E
:100D4000000C024080B586B000AF01200121FFF702
:100D500031FB01233B6100233B7502237B7500239C
:100D6000BB750223FB7507F1100312481946FFF704
:100D7000ABFE00200021FFF759FA01237B6000231E
:100D80003B7208237B720123BB723B1D184600F0A7
:100D900043F806233B7301237B730123BB730123B9
:100DA000FB7307F10C03184600F0D6F81837BD4660
:100DB00080BD00BF0000024080B584B000AF1C239E
:100DC0003B7000237B700123BB700123FB703B460B
:100DD000184600F0C1F801200121FFF709FB4FF48C
:100DE0007A73BB600F23BB800023BB810023FB8091
:100DF0003B1D4FF08040194600F00CF94FF0804049
:100E00000121012200F090F94FF08040012100F013
:100E10006BF91037BD4680BD80B485B000AF7860F7
:100E20000023FB60324BFB607B689B79002B4DD02D
:100E30002F4B2F4A11687A681268D2430A401A6011
:100E40002B4B2B4A51687A681268D2430A405A6089
:100E50007B681B79FA681344FB60FB68FA681168C9
:100E60007A6812680A431A60214B214A91687A68AD
:100E70001268D2430A409A601D4B1D4AD1687A68B5
:100E80001268D2430A40DA607B685B79102B0ED17E
:100E9000174B174A91687A6812680A439A60144B94
:100EA000134AD1687A6812680A43DA601BE0104B73
:100EB000FB607B685B79FA681344FB60FB68FA6847
:100EC00011687A6812680A431A600CE07B681B7923
:100ED000FA681344FB60FB68FA6811687A68126864
:100EE000D2430A401A601437BD465DF8047B704750
:100EF000003C014080B483B000AF7860034B7A6857
:100F00005A610C37BD465DF8047B7047003C0140D8
:100F100080B485B000AF78600023FB730023BB6012
:100F20000C4B1A687B681340BB600A4B5A697B689C
:100F30001340002B05D0BB68002B02D00123FB73AC
:100F400001E00023FB73FB7B18461437BD465DF8B8
:100F5000047B7047003C014080B485B000AF7860EE
:100F60000023FB730023BB730F237B737B68DB7849
:100F7000002B37D0254BDB68DB4303F4E0631B0A0F
:100F8000FB73FB7BC3F10403BB737A7BFB7B42FAED
:100F900003F37B737B685B781A46BB7B02FA03F32F
:100FA000FB737B689A787B7B1340DAB2FB7B13433D
:100FB000FB73FB7B1B01FB73154A7B681B78134497
:100FC000FA7B83F80023124B7A6812785209D2B266
:100FD0007968097801F01F01012000FA01F143F856
:100FE00022100EE00A4B7A6812785209D2B2796860
:100FF000097801F01F01012000FA01F1203243F8C5
:1010000022101437BD465DF8047B704700ED00E008
:1010100000E100E080B485B000AF78603960002363
:10102000FB817B681B88FB817A68284B9A4213D02E
:101030007A68274B9A420FD07B68B3F1804F0BD070
:101040007A68244B9A4207D07A68234B9A4203D09D
:101050007A68224B9A4208D1FB8923F07003FB8106
:101060003B685A88FB891343FB817A681C4B9A4280
:101070000CD07A681B4B9A4208D0FB8923F440734A
:10108000FB813B681A89FB891343FB817B68FA89E2
:101090001A803B685A687B68DA623B681A887B680A
:1010A0001A857A68094B9A4203D07A68084B9A42AB
:1010B00004D13B689B7A1A467B681A867B680122BA
:1010C0009A821437BD465DF8047B704700000140EA
:1010D000000401400004004000080040000C0040F3
:1010E000001000400014004080B483B000AF78606E
:1010F0000B46FB70FB78002B08D07B681B889BB2EB
:1011000043F001039AB27B681A8007E07B681B8872
:101110009BB223F001039AB27B681A800C37BD465C
:101120005DF8047B704700BF80B483B000AF786087
:1011300013460A467A807B707B78002B08D07B6848
:101140009B899AB27B8813439AB27B689A8109E0A3
:101150007B689B899AB27B88DB439BB213409AB22F
:101160007B689A810C37BD465DF8047B704700BFF1
:1011700080B485B000AF78600B467B800023FB73A2
:101180000023BB8100237B817B681B8A9AB27B880A
:101190001340BB817B689B899AB27B8813407B811B
:1011A000BB89002B05D07B89002B02D00123FB7368
:1011B00001E00023FB73FB7B18461437BD465DF846
:1011C000047B704780B483B000AF78600B467B80AF
:1011D0007B88DB439AB27B681A820C37BD465DF888
:1011E000047B7047636F756E7465723A25303364A3
:1011F0000A0D000050726573696F6E6520756E612F
:10120000207465636C61207920656E7465723A0A9A
:101210000D00000053652070726573696F6E6F3A40
:101220003078253032580A0D00000000737464696C
:101230006F2E633A20696E637265617365204D415C
:10124000585F535452494E475F53495A450A0D005F
:081250000010004000200080A6
:10125800E80300000000000000000000000000009B
:101268000100000000000000000000000000000075
:101278000000000000000000000000000000000066
:101288000000000000000000000000000000000056
:101298000000000000000000000000000000000046
:1012A8000000000000000000000000000000000036
:101688000800002000000000000C0240000C02408E
:08169800000C0240000C0240AE
:0400000508000000EF
:00000001FF
